{
  "contractName": "account",
  "abi": [
    {
      "anonymous": false,
      "inputs": [
        {
          "indexed": false,
          "internalType": "uint256",
          "name": "accID",
          "type": "uint256"
        },
        {
          "indexed": false,
          "internalType": "address",
          "name": "tdAddress",
          "type": "address"
        },
        {
          "indexed": false,
          "internalType": "uint256",
          "name": "amount",
          "type": "uint256"
        }
      ],
      "name": "LogDeposit",
      "type": "event"
    },
    {
      "anonymous": false,
      "inputs": [
        {
          "indexed": false,
          "internalType": "address",
          "name": "userAddress",
          "type": "address"
        },
        {
          "indexed": false,
          "internalType": "string",
          "name": "amount",
          "type": "string"
        }
      ],
      "name": "LogGet",
      "type": "event"
    },
    {
      "anonymous": false,
      "inputs": [
        {
          "indexed": false,
          "internalType": "address",
          "name": "userAddress",
          "type": "address"
        },
        {
          "indexed": false,
          "internalType": "string",
          "name": "amount",
          "type": "string"
        }
      ],
      "name": "LogSet",
      "type": "event"
    },
    {
      "anonymous": false,
      "inputs": [
        {
          "indexed": false,
          "internalType": "uint256",
          "name": "accID",
          "type": "uint256"
        },
        {
          "indexed": false,
          "internalType": "address",
          "name": "to",
          "type": "address"
        },
        {
          "indexed": false,
          "internalType": "uint256",
          "name": "amount",
          "type": "uint256"
        }
      ],
      "name": "LogTransfer",
      "type": "event"
    },
    {
      "anonymous": false,
      "inputs": [
        {
          "indexed": false,
          "internalType": "uint256",
          "name": "accID",
          "type": "uint256"
        },
        {
          "indexed": false,
          "internalType": "address",
          "name": "userAddress",
          "type": "address"
        },
        {
          "indexed": false,
          "internalType": "uint256",
          "name": "amount",
          "type": "uint256"
        }
      ],
      "name": "LogWithdrawal",
      "type": "event"
    },
    {
      "constant": true,
      "inputs": [
        {
          "internalType": "uint256",
          "name": "",
          "type": "uint256"
        }
      ],
      "name": "accounts",
      "outputs": [
        {
          "internalType": "uint256",
          "name": "",
          "type": "uint256"
        }
      ],
      "payable": false,
      "stateMutability": "view",
      "type": "function"
    },
    {
      "constant": true,
      "inputs": [
        {
          "internalType": "uint256",
          "name": "",
          "type": "uint256"
        }
      ],
      "name": "myAccount",
      "outputs": [
        {
          "internalType": "uint256",
          "name": "",
          "type": "uint256"
        }
      ],
      "payable": false,
      "stateMutability": "view",
      "type": "function"
    },
    {
      "constant": true,
      "inputs": [],
      "name": "price",
      "outputs": [
        {
          "internalType": "uint256",
          "name": "",
          "type": "uint256"
        }
      ],
      "payable": false,
      "stateMutability": "view",
      "type": "function"
    },
    {
      "constant": false,
      "inputs": [
        {
          "internalType": "uint256",
          "name": "accID",
          "type": "uint256"
        }
      ],
      "name": "create",
      "outputs": [
        {
          "internalType": "bool",
          "name": "success",
          "type": "bool"
        }
      ],
      "payable": true,
      "stateMutability": "payable",
      "type": "function"
    },
    {
      "constant": false,
      "inputs": [
        {
          "internalType": "uint256",
          "name": "accID",
          "type": "uint256"
        },
        {
          "internalType": "address",
          "name": "tdAddress",
          "type": "address"
        }
      ],
      "name": "deposit",
      "outputs": [
        {
          "internalType": "bool",
          "name": "success",
          "type": "bool"
        }
      ],
      "payable": true,
      "stateMutability": "payable",
      "type": "function"
    },
    {
      "constant": false,
      "inputs": [
        {
          "internalType": "uint256",
          "name": "accID",
          "type": "uint256"
        },
        {
          "internalType": "address",
          "name": "toAddress",
          "type": "address"
        }
      ],
      "name": "transfer",
      "outputs": [
        {
          "internalType": "bool",
          "name": "success",
          "type": "bool"
        }
      ],
      "payable": true,
      "stateMutability": "payable",
      "type": "function"
    }
  ],
  "bytecode": "0x608060405234801561001057600080fd5b50610510806100206000396000f3fe6080604052600436106100555760003560e01c80636e553f651461005a578063780900dc146100c0578063a035b1fe14610106578063b7760c8f14610131578063bf8a3cbd14610197578063f2a40db8146101e6575b600080fd5b6100a66004803603604081101561007057600080fd5b8101908080359060200190929190803573ffffffffffffffffffffffffffffffffffffffff169060200190929190505050610235565b604051808215151515815260200191505060405180910390f35b6100ec600480360360208110156100d657600080fd5b810190808035906020019092919050505061032f565b604051808215151515815260200191505060405180910390f35b34801561011257600080fd5b5061011b61037f565b6040518082815260200191505060405180910390f35b61017d6004803603604081101561014757600080fd5b8101908080359060200190929190803573ffffffffffffffffffffffffffffffffffffffff169060200190929190505050610385565b604051808215151515815260200191505060405180910390f35b3480156101a357600080fd5b506101d0600480360360208110156101ba57600080fd5b81019080803590602001909291905050506104a2565b6040518082815260200191505060405180910390f35b3480156101f257600080fd5b5061021f6004803603602081101561020957600080fd5b81019080803590602001909291905050506104c3565b6040518082815260200191505060405180910390f35b6000346000808581526020019081526020016000206000828254019250508190555060008290508073ffffffffffffffffffffffffffffffffffffffff166108fc349081150290604051600060405180830381858888f193505050501580156102a2573d6000803e3d6000fd5b507f8a57a2025fee4b5e783bac5849c0943b6150fce3eea68b1daefd01ac6fd1741f848260008088815260200190815260200160002054604051808481526020018373ffffffffffffffffffffffffffffffffffffffff1673ffffffffffffffffffffffffffffffffffffffff168152602001828152602001935050505060405180910390a15092915050565b600080600080848152602001908152602001600020819055506001808390806001815401808255809150509060018203906000526020600020016000909192909190915055505060019050919050565b60025481565b6000346000808581526020019081526020016000205410156103a657600080fd5b346000808581526020019081526020016000206000828254039250508190555060008290508073ffffffffffffffffffffffffffffffffffffffff166108fc349081150290604051600060405180830381858888f19350505050158015610411573d6000803e3d6000fd5b507fc34c33acf7a06e90eaa67f73bbcba191a1ad2e245c482d70cf29deb45a2b56db848260008088815260200190815260200160002054604051808481526020018373ffffffffffffffffffffffffffffffffffffffff1673ffffffffffffffffffffffffffffffffffffffff168152602001828152602001935050505060405180910390a1600191505092915050565b600181815481106104af57fe5b906000526020600020016000915090505481565b6000602052806000526040600020600091509050548156fea265627a7a72315820688917fb6b29c2e910a49c3edc758e22a5053c604b6451c85004df0063d90d8e64736f6c63430005100032",
  "source": "pragma solidity ^0.5.0;\n\ncontract account {\n\n    //mapping (address => string) public balances;\n    mapping (uint => uint) public accounts;\n    //address [] public myBalance;\n    uint [] public myAccount;\n    uint public price;\n    event LogSet(address userAddress, string amount);\n    event LogGet(address userAddress, string amount);\n    event LogTransfer(uint accID, address to, uint amount);\n    event LogDeposit(uint accID, address tdAddress, uint amount);\n    event LogWithdrawal(uint accID, address userAddress, uint amount);\n\n   //new account value =0 \n   \n   \n    function create(uint accID) public payable returns(bool success) {\n        accounts[accID] =0;\n        myAccount.push(accID)-1;\n        //tdAddress.transfer(msg.value);\n        //LogDeposit(accID,tdAddress, accounts[accID]);\n        return true;\n    }\n    // \"0x9702ca361b6EDbfFdFe6E9441a9F82EE4515C00B\"\n    function deposit(uint accID, address tdAddress) public payable returns(bool success) {\n        accounts[accID] +=msg.value;\n        address payable to = address(uint160(tdAddress));\n        to.transfer(msg.value);\n        emit LogDeposit(accID, to, accounts[accID]);\n    }\n    \n    /*function withdraw(uint accID) public payable returns(bool success){\n        if(accounts[accID] < price) revert();\n        //accounts[accID] -= price;  \n        accounts[accID] -= price;\n        msg.sender.transfer(price);\n        emit LogWithdrawal(accID, msg.sender, accounts[accID]);\n        return true;\n    }*/\n\n     function transfer(uint accID, address toAddress) public payable returns(bool success) {\n\n        if(accounts[accID] < msg.value) revert();\n        accounts[accID] -= msg.value;\n        address payable to = address(uint160(toAddress));\n        to.transfer(msg.value);\n        emit LogTransfer(accID, to, accounts[accID]);\n        return true;\n    }\n\n}",
  "sourcePath": "/Users/dw/Documents/company/MaxView3D/MileChain/td-bt/contracts/account.sol",
  "compiler": {
    "name": "solc",
    "version": "0.5.16+commit.9c3226ce.Emscripten.clang"
  },
  "schemaVersion": "3.2.3",
  "updatedAt": "2020-08-25T04:16:25.921Z",
  "devdoc": {
    "methods": {}
  },
  "userdoc": {
    "methods": {}
  }
}