{
  "contractName": "Escrow",
  "abi": [
    {
      "anonymous": false,
      "inputs": [],
      "name": "aborted",
      "type": "event"
    },
    {
      "anonymous": false,
      "inputs": [],
      "name": "itemReceived",
      "type": "event"
    },
    {
      "anonymous": false,
      "inputs": [],
      "name": "purchaseConfirmed",
      "type": "event"
    },
    {
      "constant": true,
      "inputs": [],
      "name": "conID",
      "outputs": [
        {
          "internalType": "uint256",
          "name": "",
          "type": "uint256"
        }
      ],
      "payable": false,
      "stateMutability": "view",
      "type": "function"
    },
    {
      "constant": true,
      "inputs": [
        {
          "internalType": "uint256",
          "name": "",
          "type": "uint256"
        }
      ],
      "name": "contracts",
      "outputs": [
        {
          "internalType": "uint256",
          "name": "value",
          "type": "uint256"
        },
        {
          "internalType": "address",
          "name": "seller",
          "type": "address"
        },
        {
          "internalType": "address",
          "name": "buyer",
          "type": "address"
        },
        {
          "internalType": "enum Escrow.State",
          "name": "state",
          "type": "uint8"
        }
      ],
      "payable": false,
      "stateMutability": "view",
      "type": "function"
    },
    {
      "constant": true,
      "inputs": [
        {
          "internalType": "uint256",
          "name": "",
          "type": "uint256"
        }
      ],
      "name": "myContract",
      "outputs": [
        {
          "internalType": "uint256",
          "name": "",
          "type": "uint256"
        }
      ],
      "payable": false,
      "stateMutability": "view",
      "type": "function"
    },
    {
      "constant": false,
      "inputs": [
        {
          "internalType": "address",
          "name": "sellerAddress",
          "type": "address"
        },
        {
          "internalType": "uint256",
          "name": "_conID",
          "type": "uint256"
        }
      ],
      "name": "Purchase",
      "outputs": [],
      "payable": true,
      "stateMutability": "payable",
      "type": "function"
    },
    {
      "constant": false,
      "inputs": [],
      "name": "abort",
      "outputs": [],
      "payable": true,
      "stateMutability": "payable",
      "type": "function"
    },
    {
      "constant": false,
      "inputs": [],
      "name": "confirmPurchase",
      "outputs": [],
      "payable": false,
      "stateMutability": "nonpayable",
      "type": "function"
    },
    {
      "constant": false,
      "inputs": [],
      "name": "confirmReceived",
      "outputs": [],
      "payable": true,
      "stateMutability": "payable",
      "type": "function"
    }
  ],
  "bytecode": "0x608060405234801561001057600080fd5b506107c9806100206000396000f3fe6080604052600436106100705760003560e01c8063474da79a1161004e578063474da79a146100f857806372b1ae77146101c257806373fac6f014610211578063d69606971461021b57610070565b80631396877b146100755780632499a533146100a057806335a063b4146100ee575b600080fd5b34801561008157600080fd5b5061008a610232565b6040518082815260200191505060405180910390f35b6100ec600480360360408110156100b657600080fd5b81019080803573ffffffffffffffffffffffffffffffffffffffff16906020019092919080359060200190929190505050610238565b005b6100f66103a2565b005b34801561010457600080fd5b506101316004803603602081101561011b57600080fd5b810190808035906020019092919050505061048d565b604051808581526020018473ffffffffffffffffffffffffffffffffffffffff1673ffffffffffffffffffffffffffffffffffffffff1681526020018373ffffffffffffffffffffffffffffffffffffffff1673ffffffffffffffffffffffffffffffffffffffff1681526020018260038111156101ab57fe5b60ff16815260200194505050505060405180910390f35b3480156101ce57600080fd5b506101fb600480360360208110156101e557600080fd5b810190808035906020019092919050505061050a565b6040518082815260200191505060405180910390f35b61021961052b565b005b34801561022757600080fd5b50610230610676565b005b60005481565b60405180608001604052803481526020018373ffffffffffffffffffffffffffffffffffffffff1681526020013373ffffffffffffffffffffffffffffffffffffffff1681526020016000600381111561028e57fe5b815250600160008381526020019081526020016000206000820151816000015560208201518160010160006101000a81548173ffffffffffffffffffffffffffffffffffffffff021916908373ffffffffffffffffffffffffffffffffffffffff16021790555060408201518160020160006101000a81548173ffffffffffffffffffffffffffffffffffffffff021916908373ffffffffffffffffffffffffffffffffffffffff16021790555060608201518160020160146101000a81548160ff0219169083600381111561036057fe5b02179055509050506001600282908060018154018082558091505090600182039060005260206000200160009091929091909150555050806000819055505050565b7f80b62b7017bb13cf105e22749ee2a06a417ffba8c7f57b665057e0f3c2e925d960405160405180910390a16000600160008054815260200190815260200160002060020160009054906101000a900473ffffffffffffffffffffffffffffffffffffffff1690508073ffffffffffffffffffffffffffffffffffffffff166108fc349081150290604051600060405180830381858888f19350505050158015610450573d6000803e3d6000fd5b506003600160008054815260200190815260200160002060020160146101000a81548160ff0219169083600381111561048557fe5b021790555050565b60016020528060005260406000206000915090508060000154908060010160009054906101000a900473ffffffffffffffffffffffffffffffffffffffff16908060020160009054906101000a900473ffffffffffffffffffffffffffffffffffffffff16908060020160149054906101000a900460ff16905084565b6002818154811061051757fe5b906000526020600020016000915090505481565b600180600381111561053957fe5b600160008054815260200190815260200160002060020160149054906101000a900460ff16600381111561056957fe5b1461057357600080fd5b7f64ea507aa320f07ae13c28b5e9bf6b4833ab544315f5f2aa67308e21c252d47d60405160405180910390a16000600160008054815260200190815260200160002060010160009054906101000a900473ffffffffffffffffffffffffffffffffffffffff1690508073ffffffffffffffffffffffffffffffffffffffff166108fc6001600080548152602001908152602001600020600001549081150290604051600060405180830381858888f19350505050158015610638573d6000803e3d6000fd5b506002600160008054815260200190815260200160002060020160146101000a81548160ff0219169083600381111561066d57fe5b02179055505050565b600160008054815260200190815260200160002060010160009054906101000a900473ffffffffffffffffffffffffffffffffffffffff1673ffffffffffffffffffffffffffffffffffffffff163373ffffffffffffffffffffffffffffffffffffffff16146106e557600080fd5b60008060038111156106f357fe5b600160008054815260200190815260200160002060020160149054906101000a900460ff16600381111561072357fe5b1461072d57600080fd5b7f764326667cab2f2f13cad5f7b7665c704653bd1acc250dcb7b422bce726896b460405160405180910390a160018060008054815260200190815260200160002060020160146101000a81548160ff0219169083600381111561078c57fe5b02179055505056fea265627a7a72315820ef2e641b661d55acbd14b8ccd2a46236c5d190dbe398d067758ec7b3cd7c2b9764736f6c63430005100032",
  "source": "pragma solidity ^0.5.0;\n\ncontract Escrow\n{\n    //uint public value;\n    //address public seller;\n    //address public buyer;\n    enum State { Created, Locked, Completed, Aborted }\n    //State public state;\n    \n    uint256 public conID;\n\n    struct Contract {\n        uint value;\n        address seller;\n        address buyer;\n        State state;\n    }\n    mapping (uint => Contract) public contracts;\n    uint[] public myContract;\n\n    \n    function Purchase(address sellerAddress, uint256 _conID) public payable{\n        contracts[_conID] = Contract(\n            {\n                buyer : msg.sender,\n                value : msg.value,\n                state : State.Created,\n                seller: sellerAddress\n            }\n        );\n        myContract.push(_conID) -1;\n        conID = _conID; // contract ID\n        //buyer = \"0x13A08dDcD940b8602f147FF228f4c08720456aA3\";\n        //seller= \"0xd7d90BBB0Fe833d482315c97bE4E527B550Fb37B\" ;\n        \n    }\n    \n    modifier require(bool _condition)\n    {\n        if (!_condition) revert();\n        _;\n    }\n    modifier onlyBuyer()\n    {\n        if (msg.sender != contracts[conID].buyer) revert();\n        _;\n    }\n    modifier onlySeller()\n    {\n        if (msg.sender != contracts[conID].seller) revert();\n        _;\n    }\n    modifier inState(State _state)\n    {\n        if (contracts[conID].state != _state) revert();\n        _;\n    }\n    \n    event aborted();\n    event purchaseConfirmed();\n    event itemReceived();\n\n    // Abort the purchase and reclaim the ether.\n    //Can only be called by the seller before\n    // the contract is locked.\n    function abort () public payable\n    {\n        emit aborted();\n        address payable to = address(uint160(contracts[conID].buyer));\n        to.transfer(msg.value);\n        contracts[conID].state = State.Aborted;\n    }\n    // Confirm the purchase as seller.\n    // The ether will be locked until confirmReceived\n    // is called.\n    function confirmPurchase() public\n        onlySeller\n        inState(State.Created)\n    {\n        emit purchaseConfirmed();\n        contracts[conID].state = State.Locked;\n    }\n    // Confirm that you (the buyer) received the item.\n    // This will release the locked ether.\n    function confirmReceived() public payable \n        inState(State.Locked)\n    {\n        emit itemReceived();\n        //buyer.send(value); We ignore the return value on purpose\n        address payable to = address(uint160(contracts[conID].seller));\n        to.transfer(contracts[conID].value);\n        contracts[conID].state = State.Completed;\n    }\n    //function() { throw; }\n}",
  "sourcePath": "/Users/dw/Documents/company/MaxView3D/MileChain/td-bt/contracts/escrow.sol",
  "compiler": {
    "name": "solc",
    "version": "0.5.16+commit.9c3226ce.Emscripten.clang"
  },
  "schemaVersion": "3.2.3",
  "updatedAt": "2020-08-28T07:02:03.843Z",
  "devdoc": {
    "methods": {}
  },
  "userdoc": {
    "methods": {}
  }
}